{
  "_format": "hh-sol-artifact-1",
  "contractName": "SandglassIridium",
  "sourceName": "contracts/SandglassIridium.sol",
  "abi": [
    {
      "inputs": [
        {
          "internalType": "string",
          "name": "name",
          "type": "string"
        },
        {
          "internalType": "string",
          "name": "symbol",
          "type": "string"
        },
        {
          "internalType": "string",
          "name": "baseTokenURI",
          "type": "string"
        },
        {
          "internalType": "uint256",
          "name": "max",
          "type": "uint256"
        },
        {
          "internalType": "address",
          "name": "admin",
          "type": "address"
        }
      ],
      "stateMutability": "nonpayable",
      "type": "constructor"
    },
    {
      "anonymous": false,
      "inputs": [
        {
          "indexed": true,
          "internalType": "address",
          "name": "owner",
          "type": "address"
        },
        {
          "indexed": true,
          "internalType": "address",
          "name": "approved",
          "type": "address"
        },
        {
          "indexed": true,
          "internalType": "uint256",
          "name": "tokenId",
          "type": "uint256"
        }
      ],
      "name": "Approval",
      "type": "event"
    },
    {
      "anonymous": false,
      "inputs": [
        {
          "indexed": true,
          "internalType": "address",
          "name": "owner",
          "type": "address"
        },
        {
          "indexed": true,
          "internalType": "address",
          "name": "operator",
          "type": "address"
        },
        {
          "indexed": false,
          "internalType": "bool",
          "name": "approved",
          "type": "bool"
        }
      ],
      "name": "ApprovalForAll",
      "type": "event"
    },
    {
      "anonymous": false,
      "inputs": [
        {
          "indexed": true,
          "internalType": "address",
          "name": "previousOwner",
          "type": "address"
        },
        {
          "indexed": true,
          "internalType": "address",
          "name": "newOwner",
          "type": "address"
        }
      ],
      "name": "OwnershipTransferred",
      "type": "event"
    },
    {
      "anonymous": false,
      "inputs": [
        {
          "indexed": true,
          "internalType": "bytes32",
          "name": "role",
          "type": "bytes32"
        },
        {
          "indexed": true,
          "internalType": "bytes32",
          "name": "previousAdminRole",
          "type": "bytes32"
        },
        {
          "indexed": true,
          "internalType": "bytes32",
          "name": "newAdminRole",
          "type": "bytes32"
        }
      ],
      "name": "RoleAdminChanged",
      "type": "event"
    },
    {
      "anonymous": false,
      "inputs": [
        {
          "indexed": true,
          "internalType": "bytes32",
          "name": "role",
          "type": "bytes32"
        },
        {
          "indexed": true,
          "internalType": "address",
          "name": "account",
          "type": "address"
        },
        {
          "indexed": true,
          "internalType": "address",
          "name": "sender",
          "type": "address"
        }
      ],
      "name": "RoleGranted",
      "type": "event"
    },
    {
      "anonymous": false,
      "inputs": [
        {
          "indexed": true,
          "internalType": "bytes32",
          "name": "role",
          "type": "bytes32"
        },
        {
          "indexed": true,
          "internalType": "address",
          "name": "account",
          "type": "address"
        },
        {
          "indexed": true,
          "internalType": "address",
          "name": "sender",
          "type": "address"
        }
      ],
      "name": "RoleRevoked",
      "type": "event"
    },
    {
      "anonymous": false,
      "inputs": [
        {
          "indexed": true,
          "internalType": "address",
          "name": "from",
          "type": "address"
        },
        {
          "indexed": true,
          "internalType": "address",
          "name": "to",
          "type": "address"
        },
        {
          "indexed": true,
          "internalType": "uint256",
          "name": "tokenId",
          "type": "uint256"
        }
      ],
      "name": "Transfer",
      "type": "event"
    },
    {
      "inputs": [],
      "name": "DEFAULT_ADMIN_ROLE",
      "outputs": [
        {
          "internalType": "bytes32",
          "name": "",
          "type": "bytes32"
        }
      ],
      "stateMutability": "view",
      "type": "function"
    },
    {
      "inputs": [],
      "name": "_tokenIdTracker",
      "outputs": [
        {
          "internalType": "uint256",
          "name": "_value",
          "type": "uint256"
        }
      ],
      "stateMutability": "view",
      "type": "function"
    },
    {
      "inputs": [
        {
          "internalType": "address",
          "name": "to",
          "type": "address"
        },
        {
          "internalType": "uint256",
          "name": "tokenId",
          "type": "uint256"
        }
      ],
      "name": "approve",
      "outputs": [],
      "stateMutability": "nonpayable",
      "type": "function"
    },
    {
      "inputs": [
        {
          "internalType": "address",
          "name": "owner",
          "type": "address"
        }
      ],
      "name": "balanceOf",
      "outputs": [
        {
          "internalType": "uint256",
          "name": "",
          "type": "uint256"
        }
      ],
      "stateMutability": "view",
      "type": "function"
    },
    {
      "inputs": [
        {
          "internalType": "uint256",
          "name": "_salePrice",
          "type": "uint256"
        }
      ],
      "name": "calculateRoyalty",
      "outputs": [
        {
          "internalType": "uint256",
          "name": "",
          "type": "uint256"
        }
      ],
      "stateMutability": "view",
      "type": "function"
    },
    {
      "inputs": [
        {
          "internalType": "uint256",
          "name": "tokenId",
          "type": "uint256"
        }
      ],
      "name": "getApproved",
      "outputs": [
        {
          "internalType": "address",
          "name": "",
          "type": "address"
        }
      ],
      "stateMutability": "view",
      "type": "function"
    },
    {
      "inputs": [
        {
          "internalType": "bytes32",
          "name": "role",
          "type": "bytes32"
        }
      ],
      "name": "getRoleAdmin",
      "outputs": [
        {
          "internalType": "bytes32",
          "name": "",
          "type": "bytes32"
        }
      ],
      "stateMutability": "view",
      "type": "function"
    },
    {
      "inputs": [
        {
          "internalType": "bytes32",
          "name": "role",
          "type": "bytes32"
        },
        {
          "internalType": "uint256",
          "name": "index",
          "type": "uint256"
        }
      ],
      "name": "getRoleMember",
      "outputs": [
        {
          "internalType": "address",
          "name": "",
          "type": "address"
        }
      ],
      "stateMutability": "view",
      "type": "function"
    },
    {
      "inputs": [
        {
          "internalType": "bytes32",
          "name": "role",
          "type": "bytes32"
        }
      ],
      "name": "getRoleMemberCount",
      "outputs": [
        {
          "internalType": "uint256",
          "name": "",
          "type": "uint256"
        }
      ],
      "stateMutability": "view",
      "type": "function"
    },
    {
      "inputs": [
        {
          "internalType": "bytes32",
          "name": "role",
          "type": "bytes32"
        },
        {
          "internalType": "address",
          "name": "account",
          "type": "address"
        }
      ],
      "name": "grantRole",
      "outputs": [],
      "stateMutability": "nonpayable",
      "type": "function"
    },
    {
      "inputs": [
        {
          "internalType": "bytes32",
          "name": "role",
          "type": "bytes32"
        },
        {
          "internalType": "address",
          "name": "account",
          "type": "address"
        }
      ],
      "name": "hasRole",
      "outputs": [
        {
          "internalType": "bool",
          "name": "",
          "type": "bool"
        }
      ],
      "stateMutability": "view",
      "type": "function"
    },
    {
      "inputs": [
        {
          "internalType": "address",
          "name": "owner",
          "type": "address"
        },
        {
          "internalType": "address",
          "name": "operator",
          "type": "address"
        }
      ],
      "name": "isApprovedForAll",
      "outputs": [
        {
          "internalType": "bool",
          "name": "",
          "type": "bool"
        }
      ],
      "stateMutability": "view",
      "type": "function"
    },
    {
      "inputs": [
        {
          "internalType": "uint256",
          "name": "amount",
          "type": "uint256"
        }
      ],
      "name": "mint",
      "outputs": [],
      "stateMutability": "payable",
      "type": "function"
    },
    {
      "inputs": [
        {
          "internalType": "uint256",
          "name": "",
          "type": "uint256"
        }
      ],
      "name": "minter",
      "outputs": [
        {
          "internalType": "address",
          "name": "",
          "type": "address"
        }
      ],
      "stateMutability": "view",
      "type": "function"
    },
    {
      "inputs": [],
      "name": "name",
      "outputs": [
        {
          "internalType": "string",
          "name": "",
          "type": "string"
        }
      ],
      "stateMutability": "view",
      "type": "function"
    },
    {
      "inputs": [],
      "name": "owner",
      "outputs": [
        {
          "internalType": "address",
          "name": "",
          "type": "address"
        }
      ],
      "stateMutability": "view",
      "type": "function"
    },
    {
      "inputs": [
        {
          "internalType": "uint256",
          "name": "tokenId",
          "type": "uint256"
        }
      ],
      "name": "ownerOf",
      "outputs": [
        {
          "internalType": "address",
          "name": "",
          "type": "address"
        }
      ],
      "stateMutability": "view",
      "type": "function"
    },
    {
      "inputs": [],
      "name": "price",
      "outputs": [
        {
          "internalType": "uint256",
          "name": "",
          "type": "uint256"
        }
      ],
      "stateMutability": "view",
      "type": "function"
    },
    {
      "inputs": [],
      "name": "renounceOwnership",
      "outputs": [],
      "stateMutability": "nonpayable",
      "type": "function"
    },
    {
      "inputs": [
        {
          "internalType": "bytes32",
          "name": "role",
          "type": "bytes32"
        },
        {
          "internalType": "address",
          "name": "account",
          "type": "address"
        }
      ],
      "name": "renounceRole",
      "outputs": [],
      "stateMutability": "nonpayable",
      "type": "function"
    },
    {
      "inputs": [
        {
          "internalType": "bytes32",
          "name": "role",
          "type": "bytes32"
        },
        {
          "internalType": "address",
          "name": "account",
          "type": "address"
        }
      ],
      "name": "revokeRole",
      "outputs": [],
      "stateMutability": "nonpayable",
      "type": "function"
    },
    {
      "inputs": [
        {
          "internalType": "uint256",
          "name": "_tokenId",
          "type": "uint256"
        },
        {
          "internalType": "uint256",
          "name": "_salePrice",
          "type": "uint256"
        }
      ],
      "name": "royaltyInfo",
      "outputs": [
        {
          "internalType": "address",
          "name": "receiver",
          "type": "address"
        },
        {
          "internalType": "uint256",
          "name": "royaltyAmount",
          "type": "uint256"
        }
      ],
      "stateMutability": "view",
      "type": "function"
    },
    {
      "inputs": [
        {
          "internalType": "address",
          "name": "from",
          "type": "address"
        },
        {
          "internalType": "address",
          "name": "to",
          "type": "address"
        },
        {
          "internalType": "uint256",
          "name": "tokenId",
          "type": "uint256"
        }
      ],
      "name": "safeTransferFrom",
      "outputs": [],
      "stateMutability": "nonpayable",
      "type": "function"
    },
    {
      "inputs": [
        {
          "internalType": "address",
          "name": "from",
          "type": "address"
        },
        {
          "internalType": "address",
          "name": "to",
          "type": "address"
        },
        {
          "internalType": "uint256",
          "name": "tokenId",
          "type": "uint256"
        },
        {
          "internalType": "bytes",
          "name": "_data",
          "type": "bytes"
        }
      ],
      "name": "safeTransferFrom",
      "outputs": [],
      "stateMutability": "nonpayable",
      "type": "function"
    },
    {
      "inputs": [
        {
          "internalType": "address",
          "name": "operator",
          "type": "address"
        },
        {
          "internalType": "bool",
          "name": "approved",
          "type": "bool"
        }
      ],
      "name": "setApprovalForAll",
      "outputs": [],
      "stateMutability": "nonpayable",
      "type": "function"
    },
    {
      "inputs": [
        {
          "internalType": "string",
          "name": "baseURI",
          "type": "string"
        }
      ],
      "name": "setBaseURI",
      "outputs": [],
      "stateMutability": "nonpayable",
      "type": "function"
    },
    {
      "inputs": [
        {
          "internalType": "uint256",
          "name": "mintPrice",
          "type": "uint256"
        }
      ],
      "name": "setPrice",
      "outputs": [],
      "stateMutability": "nonpayable",
      "type": "function"
    },
    {
      "inputs": [
        {
          "internalType": "address",
          "name": "_reciever",
          "type": "address"
        },
        {
          "internalType": "uint96",
          "name": "_royaltyFee",
          "type": "uint96"
        }
      ],
      "name": "setRoyalty",
      "outputs": [],
      "stateMutability": "nonpayable",
      "type": "function"
    },
    {
      "inputs": [
        {
          "internalType": "uint256",
          "name": "tokenId",
          "type": "uint256"
        },
        {
          "internalType": "string",
          "name": "_tokenURI",
          "type": "string"
        }
      ],
      "name": "setTokenURI",
      "outputs": [],
      "stateMutability": "nonpayable",
      "type": "function"
    },
    {
      "inputs": [
        {
          "internalType": "uint256",
          "name": "",
          "type": "uint256"
        }
      ],
      "name": "skipToken",
      "outputs": [
        {
          "internalType": "bool",
          "name": "",
          "type": "bool"
        }
      ],
      "stateMutability": "view",
      "type": "function"
    },
    {
      "inputs": [
        {
          "internalType": "bytes4",
          "name": "interfaceId",
          "type": "bytes4"
        }
      ],
      "name": "supportsInterface",
      "outputs": [
        {
          "internalType": "bool",
          "name": "",
          "type": "bool"
        }
      ],
      "stateMutability": "view",
      "type": "function"
    },
    {
      "inputs": [],
      "name": "symbol",
      "outputs": [
        {
          "internalType": "string",
          "name": "",
          "type": "string"
        }
      ],
      "stateMutability": "view",
      "type": "function"
    },
    {
      "inputs": [
        {
          "internalType": "uint256",
          "name": "index",
          "type": "uint256"
        }
      ],
      "name": "tokenByIndex",
      "outputs": [
        {
          "internalType": "uint256",
          "name": "",
          "type": "uint256"
        }
      ],
      "stateMutability": "view",
      "type": "function"
    },
    {
      "inputs": [
        {
          "internalType": "uint256",
          "name": "tokenId",
          "type": "uint256"
        }
      ],
      "name": "tokenMinter",
      "outputs": [
        {
          "internalType": "address",
          "name": "",
          "type": "address"
        }
      ],
      "stateMutability": "view",
      "type": "function"
    },
    {
      "inputs": [
        {
          "internalType": "address",
          "name": "owner",
          "type": "address"
        },
        {
          "internalType": "uint256",
          "name": "index",
          "type": "uint256"
        }
      ],
      "name": "tokenOfOwnerByIndex",
      "outputs": [
        {
          "internalType": "uint256",
          "name": "",
          "type": "uint256"
        }
      ],
      "stateMutability": "view",
      "type": "function"
    },
    {
      "inputs": [
        {
          "internalType": "uint256",
          "name": "tokenId",
          "type": "uint256"
        }
      ],
      "name": "tokenURI",
      "outputs": [
        {
          "internalType": "string",
          "name": "",
          "type": "string"
        }
      ],
      "stateMutability": "view",
      "type": "function"
    },
    {
      "inputs": [],
      "name": "totalSupply",
      "outputs": [
        {
          "internalType": "uint256",
          "name": "",
          "type": "uint256"
        }
      ],
      "stateMutability": "view",
      "type": "function"
    },
    {
      "inputs": [
        {
          "internalType": "address",
          "name": "from",
          "type": "address"
        },
        {
          "internalType": "address",
          "name": "to",
          "type": "address"
        },
        {
          "internalType": "uint256",
          "name": "tokenId",
          "type": "uint256"
        }
      ],
      "name": "transferFrom",
      "outputs": [],
      "stateMutability": "nonpayable",
      "type": "function"
    },
    {
      "inputs": [
        {
          "internalType": "address",
          "name": "newOwner",
          "type": "address"
        }
      ],
      "name": "transferOwnership",
      "outputs": [],
      "stateMutability": "nonpayable",
      "type": "function"
    },
    {
      "inputs": [
        {
          "internalType": "address",
          "name": "_owner",
          "type": "address"
        }
      ],
      "name": "walletOfOwner",
      "outputs": [
        {
          "internalType": "uint256[]",
          "name": "",
          "type": "uint256[]"
        }
      ],
      "stateMutability": "view",
      "type": "function"
    },
    {
      "inputs": [
        {
          "internalType": "address",
          "name": "_recipient",
          "type": "address"
        }
      ],
      "name": "withdraw",
      "outputs": [],
      "stateMutability": "payable",
      "type": "function"
    }
  ],
  "bytecode": "0x60806040523480156200001157600080fd5b506040516200594b3803806200594b833981810160405281019062000037919062000980565b858581600290805190602001906200005192919062000830565b5080600390805190602001906200006a92919062000830565b50505083600e90805190602001906200008592919062000830565b5082600f819055508160108190555080601160006101000a81548173ffffffffffffffffffffffffffffffffffffffff021916908373ffffffffffffffffffffffffffffffffffffffff160217905550620000ec600d6200058460201b620017b31760201c565b620001016000801b826200059a60201b60201c565b6001601360006003815260200190815260200160002060006101000a81548160ff021916908315150217905550600160136000600b815260200190815260200160002060006101000a81548160ff021916908315150217905550600160136000600c815260200190815260200160002060006101000a81548160ff021916908315150217905550600160136000600d815260200190815260200160002060006101000a81548160ff0219169083151502179055506001601360006023815260200190815260200160002060006101000a81548160ff02191690831515021790555060016013600061015e815260200190815260200160002060006101000a81548160ff02191690831515021790555060016013600061015f815260200190815260200160002060006101000a81548160ff021916908315150217905550600160136000610160815260200190815260200160002060006101000a81548160ff021916908315150217905550600160136000610161815260200190815260200160002060006101000a81548160ff021916908315150217905550600160136000610162815260200190815260200160002060006101000a81548160ff021916908315150217905550600160136000610162815260200190815260200160002060006101000a81548160ff02191690831515021790555060016013600060bb815260200190815260200160002060006101000a81548160ff02191690831515021790555060016013600060cb815260200190815260200160002060006101000a81548160ff021916908315150217905550600160136000610132815260200190815260200160002060006101000a81548160ff021916908315150217905550600160136000610154815260200190815260200160002060006101000a81548160ff021916908315150217905550600160136000610155815260200190815260200160002060006101000a81548160ff021916908315150217905550600160136000610156815260200190815260200160002060006101000a81548160ff021916908315150217905550600160136000610157815260200190815260200160002060006101000a81548160ff021916908315150217905550600160136000610159815260200190815260200160002060006101000a81548160ff02191690831515021790555060016013600061017b815260200190815260200160002060006101000a81548160ff021916908315150217905550600160136000610205815260200190815260200160002060006101000a81548160ff02191690831515021790555060016013600061024f815260200190815260200160002060006101000a81548160ff021916908315150217905550600160136000610268815260200190815260200160002060006101000a81548160ff021916908315150217905550600160136000610293815260200190815260200160002060006101000a81548160ff0219169083151502179055506001601360006102e9815260200190815260200160002060006101000a81548160ff02191690831515021790555050505050505062000c04565b6001816000016000828254019250508190555050565b620005b18282620005e260201b620017c91760201c565b620005dd8160016000858152602001908152602001600020620005f860201b620017d71790919060201c565b505050565b620005f482826200063060201b60201c565b5050565b600062000628836000018373ffffffffffffffffffffffffffffffffffffffff1660001b6200072160201b60201c565b905092915050565b6200064282826200079b60201b60201c565b6200071d57600160008084815260200190815260200160002060000160008373ffffffffffffffffffffffffffffffffffffffff1673ffffffffffffffffffffffffffffffffffffffff16815260200190815260200160002060006101000a81548160ff021916908315150217905550620006c26200080560201b60201c565b73ffffffffffffffffffffffffffffffffffffffff168173ffffffffffffffffffffffffffffffffffffffff16837f2f8788117e7eff1d82e926ec794901d17c78024a50270940304540a733656f0d60405160405180910390a45b5050565b60006200073583836200080d60201b60201c565b6200079057826000018290806001815401808255809150506001900390600052602060002001600090919091909150558260000180549050836001016000848152602001908152602001600020819055506001905062000795565b600090505b92915050565b600080600084815260200190815260200160002060000160008373ffffffffffffffffffffffffffffffffffffffff1673ffffffffffffffffffffffffffffffffffffffff16815260200190815260200160002060009054906101000a900460ff16905092915050565b600033905090565b600080836001016000848152602001908152602001600020541415905092915050565b8280546200083e9062000b3c565b90600052602060002090601f016020900481019282620008625760008555620008ae565b82601f106200087d57805160ff1916838001178555620008ae565b82800160010185558215620008ae579182015b82811115620008ad57825182559160200191906001019062000890565b5b509050620008bd9190620008c1565b5090565b5b80821115620008dc576000816000905550600101620008c2565b5090565b6000620008f7620008f18462000a95565b62000a61565b9050828152602081018484840111156200091057600080fd5b6200091d84828562000b06565b509392505050565b600081519050620009368162000bd0565b92915050565b600082601f8301126200094e57600080fd5b815162000960848260208601620008e0565b91505092915050565b6000815190506200097a8162000bea565b92915050565b60008060008060008060c087890312156200099a57600080fd5b600087015167ffffffffffffffff811115620009b557600080fd5b620009c389828a016200093c565b965050602087015167ffffffffffffffff811115620009e157600080fd5b620009ef89828a016200093c565b955050604087015167ffffffffffffffff81111562000a0d57600080fd5b62000a1b89828a016200093c565b945050606062000a2e89828a0162000969565b935050608062000a4189828a0162000969565b92505060a062000a5489828a0162000925565b9150509295509295509295565b6000604051905081810181811067ffffffffffffffff8211171562000a8b5762000a8a62000ba1565b5b8060405250919050565b600067ffffffffffffffff82111562000ab35762000ab262000ba1565b5b601f19601f8301169050602081019050919050565b600062000ad58262000adc565b9050919050565b600073ffffffffffffffffffffffffffffffffffffffff82169050919050565b6000819050919050565b60005b8381101562000b2657808201518184015260208101905062000b09565b8381111562000b36576000848401525b50505050565b6000600282049050600182168062000b5557607f821691505b6020821081141562000b6c5762000b6b62000b72565b5b50919050565b7f4e487b7100000000000000000000000000000000000000000000000000000000600052602260045260246000fd5b7f4e487b7100000000000000000000000000000000000000000000000000000000600052604160045260246000fd5b62000bdb8162000ac8565b811462000be757600080fd5b50565b62000bf58162000afc565b811462000c0157600080fd5b50565b614d378062000c146000396000f3fe6080604052600436106101f95760003560e01c806370a082311161010d578063a0712d68116100a0578063b88d4fde1161006f578063b88d4fde146107a6578063c87b56dd146107cf578063ca15c8731461080c578063d547741f14610849578063e985e9c514610872576101f9565b8063a0712d68146106f9578063a217fddf14610715578063a22cb46514610740578063ac8d856c14610769576101f9565b806391d14854116100dc57806391d148541461063b57806395d89b411461067857806398bcede9146106a3578063a035b1fe146106ce576101f9565b806370a082311461055b5780637c57d947146105985780639010d07c146105d557806391b7f5ed14610612576101f9565b80632f2ff15d11610190578063438b63001161015f578063438b63001461043e5780634f6ccce71461047b57806355f804b3146104b85780635684627a146104e15780636352211e1461051e576101f9565b80632f2ff15d146103865780632f745c59146103af57806336568abe146103ec57806342842e0e14610415576101f9565b8063162094c4116101cc578063162094c4146102cc57806318160ddd146102f557806323b872dd14610320578063248a9ca314610349576101f9565b806301ffc9a7146101fe57806306fdde031461023b578063081812fc14610266578063095ea7b3146102a3575b600080fd5b34801561020a57600080fd5b506102256004803603810190610220919061379e565b6108af565b6040516102329190614496565b60405180910390f35b34801561024757600080fd5b506102506108c1565b60405161025d91906144cc565b60405180910390f35b34801561027257600080fd5b5061028d60048036038101906102889190613831565b610953565b60405161029a919061440d565b60405180910390f35b3480156102af57600080fd5b506102ca60048036038101906102c591906136c1565b6109d8565b005b3480156102d857600080fd5b506102f360048036038101906102ee919061385a565b610af0565b005b34801561030157600080fd5b5061030a610b51565b60405161031791906147ee565b60405180910390f35b34801561032c57600080fd5b50610347600480360381019061034291906135bb565b610b5e565b005b34801561035557600080fd5b50610370600480360381019061036b91906136fd565b610bbe565b60405161037d91906144b1565b60405180910390f35b34801561039257600080fd5b506103ad60048036038101906103a89190613726565b610bdd565b005b3480156103bb57600080fd5b506103d660048036038101906103d191906136c1565b610c11565b6040516103e391906147ee565b60405180910390f35b3480156103f857600080fd5b50610413600480360381019061040e9190613726565b610cb6565b005b34801561042157600080fd5b5061043c600480360381019061043791906135bb565b610cea565b005b34801561044a57600080fd5b5061046560048036038101906104609190613556565b610d0a565b6040516104729190614474565b60405180910390f35b34801561048757600080fd5b506104a2600480360381019061049d9190613831565b610e04565b6040516104af91906147ee565b60405180910390f35b3480156104c457600080fd5b506104df60048036038101906104da91906137f0565b610e9b565b005b3480156104ed57600080fd5b5061050860048036038101906105039190613831565b610f08565b6040516105159190614496565b60405180910390f35b34801561052a57600080fd5b5061054560048036038101906105409190613831565b610f28565b604051610552919061440d565b60405180910390f35b34801561056757600080fd5b50610582600480360381019061057d9190613556565b610fda565b60405161058f91906147ee565b60405180910390f35b3480156105a457600080fd5b506105bf60048036038101906105ba9190613831565b611092565b6040516105cc919061440d565b60405180910390f35b3480156105e157600080fd5b506105fc60048036038101906105f79190613762565b6110cf565b604051610609919061440d565b60405180910390f35b34801561061e57600080fd5b5061063960048036038101906106349190613831565b6110fe565b005b34801561064757600080fd5b50610662600480360381019061065d9190613726565b61115b565b60405161066f9190614496565b60405180910390f35b34801561068457600080fd5b5061068d6111c5565b60405161069a91906144cc565b60405180910390f35b3480156106af57600080fd5b506106b8611257565b6040516106c591906147ee565b60405180910390f35b3480156106da57600080fd5b506106e3611263565b6040516106f091906147ee565b60405180910390f35b610713600480360381019061070e9190613831565b61126d565b005b34801561072157600080fd5b5061072a611403565b60405161073791906144b1565b60405180910390f35b34801561074c57600080fd5b5061076760048036038101906107629190613685565b61140a565b005b34801561077557600080fd5b50610790600480360381019061078b9190613831565b61158b565b60405161079d919061440d565b60405180910390f35b3480156107b257600080fd5b506107cd60048036038101906107c8919061360a565b6115be565b005b3480156107db57600080fd5b506107f660048036038101906107f19190613831565b611620565b60405161080391906144cc565b60405180910390f35b34801561081857600080fd5b50610833600480360381019061082e91906136fd565b6116c7565b60405161084091906147ee565b60405180910390f35b34801561085557600080fd5b50610870600480360381019061086b9190613726565b6116eb565b005b34801561087e57600080fd5b506108996004803603810190610894919061357f565b61171f565b6040516108a69190614496565b60405180910390f35b60006108ba82611807565b9050919050565b6060600280546108d090614b15565b80601f01602080910402602001604051908101604052809291908181526020018280546108fc90614b15565b80156109495780601f1061091e57610100808354040283529160200191610949565b820191906000526020600020905b81548152906001019060200180831161092c57829003601f168201915b5050505050905090565b600061095e82611881565b61099d576040517f08c379a0000000000000000000000000000000000000000000000000000000008152600401610994906146ce565b60405180910390fd5b6006600083815260200190815260200160002060009054906101000a900473ffffffffffffffffffffffffffffffffffffffff169050919050565b60006109e382610f28565b90508073ffffffffffffffffffffffffffffffffffffffff168373ffffffffffffffffffffffffffffffffffffffff161415610a54576040517f08c379a0000000000000000000000000000000000000000000000000000000008152600401610a4b9061472e565b60405180910390fd5b8073ffffffffffffffffffffffffffffffffffffffff16610a736118ed565b73ffffffffffffffffffffffffffffffffffffffff161480610aa25750610aa181610a9c6118ed565b61171f565b5b610ae1576040517f08c379a0000000000000000000000000000000000000000000000000000000008152600401610ad89061460e565b60405180910390fd5b610aeb83836118f5565b505050565b610b046000801b610aff6118ed565b61115b565b610b43576040517f08c379a0000000000000000000000000000000000000000000000000000000008152600401610b3a906145ce565b60405180910390fd5b610b4d82826119ae565b5050565b6000600a80549050905090565b610b6f610b696118ed565b82611a22565b610bae576040517f08c379a0000000000000000000000000000000000000000000000000000000008152600401610ba59061474e565b60405180910390fd5b610bb9838383611b00565b505050565b6000806000838152602001908152602001600020600101549050919050565b610be78282611d5c565b610c0c81600160008581526020019081526020016000206117d790919063ffffffff16565b505050565b6000610c1c83610fda565b8210610c5d576040517f08c379a0000000000000000000000000000000000000000000000000000000008152600401610c549061452e565b60405180910390fd5b600860008473ffffffffffffffffffffffffffffffffffffffff1673ffffffffffffffffffffffffffffffffffffffff168152602001908152602001600020600083815260200190815260200160002054905092915050565b610cc08282611d85565b610ce58160016000858152602001908152602001600020611e0890919063ffffffff16565b505050565b610d05838383604051806020016040528060008152506115be565b505050565b60606000610d1783610fda565b905060008167ffffffffffffffff811115610d5b577f4e487b7100000000000000000000000000000000000000000000000000000000600052604160045260246000fd5b604051908082528060200260200182016040528015610d895781602001602082028036833780820191505090505b50905060005b82811015610df957610da18582610c11565b828281518110610dda577f4e487b7100000000000000000000000000000000000000000000000000000000600052603260045260246000fd5b6020026020010181815250508080610df190614b47565b915050610d8f565b508092505050919050565b6000610e0e610b51565b8210610e4f576040517f08c379a0000000000000000000000000000000000000000000000000000000008152600401610e469061478e565b60405180910390fd5b600a8281548110610e89577f4e487b7100000000000000000000000000000000000000000000000000000000600052603260045260246000fd5b90600052602060002001549050919050565b610eaf6000801b610eaa6118ed565b61115b565b610eee576040517f08c379a0000000000000000000000000000000000000000000000000000000008152600401610ee59061476e565b60405180910390fd5b80600e9080519060200190610f04929190613365565b5050565b60136020528060005260406000206000915054906101000a900460ff1681565b6000806004600084815260200190815260200160002060009054906101000a900473ffffffffffffffffffffffffffffffffffffffff169050600073ffffffffffffffffffffffffffffffffffffffff168173ffffffffffffffffffffffffffffffffffffffff161415610fd1576040517f08c379a0000000000000000000000000000000000000000000000000000000008152600401610fc89061464e565b60405180910390fd5b80915050919050565b60008073ffffffffffffffffffffffffffffffffffffffff168273ffffffffffffffffffffffffffffffffffffffff16141561104b576040517f08c379a00000000000000000000000000000000000000000000000000000000081526004016110429061462e565b60405180910390fd5b600560008373ffffffffffffffffffffffffffffffffffffffff1673ffffffffffffffffffffffffffffffffffffffff168152602001908152602001600020549050919050565b60006012600083815260200190815260200160002060009054906101000a900473ffffffffffffffffffffffffffffffffffffffff169050919050565b60006110f68260016000868152602001908152602001600020611e3890919063ffffffff16565b905092915050565b6111126000801b61110d6118ed565b61115b565b611151576040517f08c379a00000000000000000000000000000000000000000000000000000000081526004016111489061450e565b60405180910390fd5b80600f8190555050565b600080600084815260200190815260200160002060000160008373ffffffffffffffffffffffffffffffffffffffff1673ffffffffffffffffffffffffffffffffffffffff16815260200190815260200160002060009054906101000a900460ff16905092915050565b6060600380546111d490614b15565b80601f016020809104026020016040519081016040528092919081815260200182805461120090614b15565b801561124d5780601f106112225761010080835404028352916020019161124d565b820191906000526020600020905b81548152906001019060200180831161123057829003601f168201915b5050505050905090565b600d8060000154905081565b6000600f54905090565b80600f5461127b919061499d565b34146112bc576040517f08c379a00000000000000000000000000000000000000000000000000000000081526004016112b3906147ae565b60405180910390fd5b601054816112ca600d611e52565b6112d49190614916565b1115611315576040517f08c379a000000000000000000000000000000000000000000000000000000000815260040161130c9061468e565b60405180910390fd5b60005b818110156113ff576001151560136000611332600d611e52565b815260200190815260200160002060009054906101000a900460ff161515141561137357611360600d6117b3565b818061136b90614b47565b9250506113ec565b61138633611381600d611e52565b611e60565b3360126000611395600d611e52565b815260200190815260200160002060006101000a81548173ffffffffffffffffffffffffffffffffffffffff021916908373ffffffffffffffffffffffffffffffffffffffff1602179055506113eb600d6117b3565b5b80806113f790614b47565b915050611318565b5050565b6000801b81565b6114126118ed565b73ffffffffffffffffffffffffffffffffffffffff168273ffffffffffffffffffffffffffffffffffffffff161415611480576040517f08c379a0000000000000000000000000000000000000000000000000000000008152600401611477906145ae565b60405180910390fd5b806007600061148d6118ed565b73ffffffffffffffffffffffffffffffffffffffff1673ffffffffffffffffffffffffffffffffffffffff16815260200190815260200160002060008473ffffffffffffffffffffffffffffffffffffffff1673ffffffffffffffffffffffffffffffffffffffff16815260200190815260200160002060006101000a81548160ff0219169083151502179055508173ffffffffffffffffffffffffffffffffffffffff1661153a6118ed565b73ffffffffffffffffffffffffffffffffffffffff167f17307eab39ab6107e8899845ad3d59bd9653f200f220920489ca2b5937696c318360405161157f9190614496565b60405180910390a35050565b60126020528060005260406000206000915054906101000a900473ffffffffffffffffffffffffffffffffffffffff1681565b6115cf6115c96118ed565b83611a22565b61160e576040517f08c379a00000000000000000000000000000000000000000000000000000000081526004016116059061474e565b60405180910390fd5b61161a8484848461202e565b50505050565b606061162b82611881565b61166a576040517f08c379a00000000000000000000000000000000000000000000000000000000081526004016116619061470e565b60405180910390fd5b600061167461208a565b9050600081511161169457604051806020016040528060008152506116bf565b8061169e8461211c565b6040516020016116af9291906143a4565b6040516020818303038152906040525b915050919050565b60006116e4600160008481526020019081526020016000206122c9565b9050919050565b6116f582826122de565b61171a8160016000858152602001908152602001600020611e0890919063ffffffff16565b505050565b6000600760008473ffffffffffffffffffffffffffffffffffffffff1673ffffffffffffffffffffffffffffffffffffffff16815260200190815260200160002060008373ffffffffffffffffffffffffffffffffffffffff1673ffffffffffffffffffffffffffffffffffffffff16815260200190815260200160002060009054906101000a900460ff16905092915050565b6001816000016000828254019250508190555050565b6117d38282612307565b5050565b60006117ff836000018373ffffffffffffffffffffffffffffffffffffffff1660001b6123e7565b905092915050565b60007f780e9d63000000000000000000000000000000000000000000000000000000007bffffffffffffffffffffffffffffffffffffffffffffffffffffffff1916827bffffffffffffffffffffffffffffffffffffffffffffffffffffffff1916148061187a575061187982612457565b5b9050919050565b60008073ffffffffffffffffffffffffffffffffffffffff166004600084815260200190815260200160002060009054906101000a900473ffffffffffffffffffffffffffffffffffffffff1673ffffffffffffffffffffffffffffffffffffffff1614159050919050565b600033905090565b816006600083815260200190815260200160002060006101000a81548173ffffffffffffffffffffffffffffffffffffffff021916908373ffffffffffffffffffffffffffffffffffffffff160217905550808273ffffffffffffffffffffffffffffffffffffffff1661196883610f28565b73ffffffffffffffffffffffffffffffffffffffff167f8c5be1e5ebec7d5bd14f71427d1e84f3dd0314c0f7b2291e5b200ac8c7c3b92560405160405180910390a45050565b6119b782611881565b6119f6576040517f08c379a00000000000000000000000000000000000000000000000000000000081526004016119ed9061466e565b60405180910390fd5b80600c60008481526020019081526020016000209080519060200190611a1d929190613365565b505050565b6000611a2d82611881565b611a6c576040517f08c379a0000000000000000000000000000000000000000000000000000000008152600401611a63906145ee565b60405180910390fd5b6000611a7783610f28565b90508073ffffffffffffffffffffffffffffffffffffffff168473ffffffffffffffffffffffffffffffffffffffff161480611ae657508373ffffffffffffffffffffffffffffffffffffffff16611ace84610953565b73ffffffffffffffffffffffffffffffffffffffff16145b80611af75750611af6818561171f565b5b91505092915050565b8273ffffffffffffffffffffffffffffffffffffffff16611b2082610f28565b73ffffffffffffffffffffffffffffffffffffffff1614611b76576040517f08c379a0000000000000000000000000000000000000000000000000000000008152600401611b6d906146ee565b60405180910390fd5b600073ffffffffffffffffffffffffffffffffffffffff168273ffffffffffffffffffffffffffffffffffffffff161415611be6576040517f08c379a0000000000000000000000000000000000000000000000000000000008152600401611bdd9061458e565b60405180910390fd5b611bf1838383612539565b611bfc6000826118f5565b6001600560008573ffffffffffffffffffffffffffffffffffffffff1673ffffffffffffffffffffffffffffffffffffffff1681526020019081526020016000206000828254611c4c91906149f7565b925050819055506001600560008473ffffffffffffffffffffffffffffffffffffffff1673ffffffffffffffffffffffffffffffffffffffff1681526020019081526020016000206000828254611ca39190614916565b92505081905550816004600083815260200190815260200160002060006101000a81548173ffffffffffffffffffffffffffffffffffffffff021916908373ffffffffffffffffffffffffffffffffffffffff160217905550808273ffffffffffffffffffffffffffffffffffffffff168473ffffffffffffffffffffffffffffffffffffffff167fddf252ad1be2c89b69c2b068fc378daa952ba7f163c4a11628f55a4df523b3ef60405160405180910390a4505050565b611d6582610bbe565b611d7681611d716118ed565b612549565b611d808383612307565b505050565b611d8d6118ed565b73ffffffffffffffffffffffffffffffffffffffff168173ffffffffffffffffffffffffffffffffffffffff1614611dfa576040517f08c379a0000000000000000000000000000000000000000000000000000000008152600401611df1906147ce565b60405180910390fd5b611e0482826125e6565b5050565b6000611e30836000018373ffffffffffffffffffffffffffffffffffffffff1660001b6126c7565b905092915050565b6000611e47836000018361284d565b60001c905092915050565b600081600001549050919050565b600073ffffffffffffffffffffffffffffffffffffffff168273ffffffffffffffffffffffffffffffffffffffff161415611ed0576040517f08c379a0000000000000000000000000000000000000000000000000000000008152600401611ec7906146ae565b60405180910390fd5b611ed981611881565b15611f19576040517f08c379a0000000000000000000000000000000000000000000000000000000008152600401611f109061456e565b60405180910390fd5b611f2560008383612539565b6001600560008473ffffffffffffffffffffffffffffffffffffffff1673ffffffffffffffffffffffffffffffffffffffff1681526020019081526020016000206000828254611f759190614916565b92505081905550816004600083815260200190815260200160002060006101000a81548173ffffffffffffffffffffffffffffffffffffffff021916908373ffffffffffffffffffffffffffffffffffffffff160217905550808273ffffffffffffffffffffffffffffffffffffffff16600073ffffffffffffffffffffffffffffffffffffffff167fddf252ad1be2c89b69c2b068fc378daa952ba7f163c4a11628f55a4df523b3ef60405160405180910390a45050565b612039848484611b00565b6120458484848461289e565b612084576040517f08c379a000000000000000000000000000000000000000000000000000000000815260040161207b9061454e565b60405180910390fd5b50505050565b6060600e805461209990614b15565b80601f01602080910402602001604051908101604052809291908181526020018280546120c590614b15565b80156121125780601f106120e757610100808354040283529160200191612112565b820191906000526020600020905b8154815290600101906020018083116120f557829003601f168201915b5050505050905090565b60606000821415612164576040518060400160405280600181526020017f300000000000000000000000000000000000000000000000000000000000000081525090506122c4565b600082905060005b6000821461219657808061217f90614b47565b915050600a8261218f919061496c565b915061216c565b60008167ffffffffffffffff8111156121d8577f4e487b7100000000000000000000000000000000000000000000000000000000600052604160045260246000fd5b6040519080825280601f01601f19166020018201604052801561220a5781602001600182028036833780820191505090505b5090505b600085146122bd5760018261222391906149f7565b9150600a856122329190614b90565b603061223e9190614916565b60f81b81838151811061227a577f4e487b7100000000000000000000000000000000000000000000000000000000600052603260045260246000fd5b60200101907effffffffffffffffffffffffffffffffffffffffffffffffffffffffffffff1916908160001a905350600a856122b6919061496c565b945061220e565b8093505050505b919050565b60006122d782600001612a35565b9050919050565b6122e782610bbe565b6122f8816122f36118ed565b612549565b61230283836125e6565b505050565b612311828261115b565b6123e357600160008084815260200190815260200160002060000160008373ffffffffffffffffffffffffffffffffffffffff1673ffffffffffffffffffffffffffffffffffffffff16815260200190815260200160002060006101000a81548160ff0219169083151502179055506123886118ed565b73ffffffffffffffffffffffffffffffffffffffff168173ffffffffffffffffffffffffffffffffffffffff16837f2f8788117e7eff1d82e926ec794901d17c78024a50270940304540a733656f0d60405160405180910390a45b5050565b60006123f38383612a46565b61244c578260000182908060018154018082558091505060019003906000526020600020016000909190919091505582600001805490508360010160008481526020019081526020016000208190555060019050612451565b600090505b92915050565b60007f80ac58cd000000000000000000000000000000000000000000000000000000007bffffffffffffffffffffffffffffffffffffffffffffffffffffffff1916827bffffffffffffffffffffffffffffffffffffffffffffffffffffffff1916148061252257507f5b5e139f000000000000000000000000000000000000000000000000000000007bffffffffffffffffffffffffffffffffffffffffffffffffffffffff1916827bffffffffffffffffffffffffffffffffffffffffffffffffffffffff1916145b80612532575061253182612a69565b5b9050919050565b612544838383612ae3565b505050565b612553828261115b565b6125e2576125788173ffffffffffffffffffffffffffffffffffffffff166014612bf7565b6125868360001c6020612bf7565b6040516020016125979291906143d3565b6040516020818303038152906040526040517f08c379a00000000000000000000000000000000000000000000000000000000081526004016125d991906144cc565b60405180910390fd5b5050565b6125f0828261115b565b156126c357600080600084815260200190815260200160002060000160008373ffffffffffffffffffffffffffffffffffffffff1673ffffffffffffffffffffffffffffffffffffffff16815260200190815260200160002060006101000a81548160ff0219169083151502179055506126686118ed565b73ffffffffffffffffffffffffffffffffffffffff168173ffffffffffffffffffffffffffffffffffffffff16837ff6391f5c32d9c69d2a47ea670b442974b53935d1edc7fd64eb21e047a839171b60405160405180910390a45b5050565b600080836001016000848152602001908152602001600020549050600081146128415760006001826126f991906149f7565b905060006001866000018054905061271191906149f7565b90508181146127cc576000866000018281548110612758577f4e487b7100000000000000000000000000000000000000000000000000000000600052603260045260246000fd5b90600052602060002001549050808760000184815481106127a2577f4e487b7100000000000000000000000000000000000000000000000000000000600052603260045260246000fd5b90600052602060002001819055508387600101600083815260200190815260200160002081905550505b85600001805480612806577f4e487b7100000000000000000000000000000000000000000000000000000000600052603160045260246000fd5b600190038181906000526020600020016000905590558560010160008681526020019081526020016000206000905560019350505050612847565b60009150505b92915050565b600082600001828154811061288b577f4e487b7100000000000000000000000000000000000000000000000000000000600052603260045260246000fd5b9060005260206000200154905092915050565b60006128bf8473ffffffffffffffffffffffffffffffffffffffff16612ef1565b15612a28578373ffffffffffffffffffffffffffffffffffffffff1663150b7a026128e86118ed565b8786866040518563ffffffff1660e01b815260040161290a9493929190614428565b602060405180830381600087803b15801561292457600080fd5b505af192505050801561295557506040513d601f19601f8201168201806040525081019061295291906137c7565b60015b6129d8573d8060008114612985576040519150601f19603f3d011682016040523d82523d6000602084013e61298a565b606091505b506000815114156129d0576040517f08c379a00000000000000000000000000000000000000000000000000000000081526004016129c79061454e565b60405180910390fd5b805181602001fd5b63150b7a0260e01b7bffffffffffffffffffffffffffffffffffffffffffffffffffffffff1916817bffffffffffffffffffffffffffffffffffffffffffffffffffffffff191614915050612a2d565b600190505b949350505050565b600081600001805490509050919050565b600080836001016000848152602001908152602001600020541415905092915050565b60007f5a05180f000000000000000000000000000000000000000000000000000000007bffffffffffffffffffffffffffffffffffffffffffffffffffffffff1916827bffffffffffffffffffffffffffffffffffffffffffffffffffffffff19161480612adc5750612adb82612f04565b5b9050919050565b612aee838383612f7e565b600073ffffffffffffffffffffffffffffffffffffffff168373ffffffffffffffffffffffffffffffffffffffff161415612b3157612b2c81612f83565b612b70565b8173ffffffffffffffffffffffffffffffffffffffff168373ffffffffffffffffffffffffffffffffffffffff1614612b6f57612b6e8382612fcc565b5b5b600073ffffffffffffffffffffffffffffffffffffffff168273ffffffffffffffffffffffffffffffffffffffff161415612bb357612bae81613139565b612bf2565b8273ffffffffffffffffffffffffffffffffffffffff168273ffffffffffffffffffffffffffffffffffffffff1614612bf157612bf0828261327c565b5b5b505050565b606060006002836002612c0a919061499d565b612c149190614916565b67ffffffffffffffff811115612c53577f4e487b7100000000000000000000000000000000000000000000000000000000600052604160045260246000fd5b6040519080825280601f01601f191660200182016040528015612c855781602001600182028036833780820191505090505b5090507f300000000000000000000000000000000000000000000000000000000000000081600081518110612ce3577f4e487b7100000000000000000000000000000000000000000000000000000000600052603260045260246000fd5b60200101907effffffffffffffffffffffffffffffffffffffffffffffffffffffffffffff1916908160001a9053507f780000000000000000000000000000000000000000000000000000000000000081600181518110612d6d577f4e487b7100000000000000000000000000000000000000000000000000000000600052603260045260246000fd5b60200101907effffffffffffffffffffffffffffffffffffffffffffffffffffffffffffff1916908160001a90535060006001846002612dad919061499d565b612db79190614916565b90505b6001811115612ea3577f3031323334353637383961626364656600000000000000000000000000000000600f861660108110612e1f577f4e487b7100000000000000000000000000000000000000000000000000000000600052603260045260246000fd5b1a60f81b828281518110612e5c577f4e487b7100000000000000000000000000000000000000000000000000000000600052603260045260246000fd5b60200101907effffffffffffffffffffffffffffffffffffffffffffffffffffffffffffff1916908160001a905350600485901c945080612e9c90614aeb565b9050612dba565b5060008414612ee7576040517f08c379a0000000000000000000000000000000000000000000000000000000008152600401612ede906144ee565b60405180910390fd5b8091505092915050565b600080823b905060008111915050919050565b60007f7965db0b000000000000000000000000000000000000000000000000000000007bffffffffffffffffffffffffffffffffffffffffffffffffffffffff1916827bffffffffffffffffffffffffffffffffffffffffffffffffffffffff19161480612f775750612f76826132fb565b5b9050919050565b505050565b600a80549050600b600083815260200190815260200160002081905550600a81908060018154018082558091505060019003906000526020600020016000909190919091505550565b60006001612fd984610fda565b612fe391906149f7565b90506000600960008481526020019081526020016000205490508181146130c8576000600860008673ffffffffffffffffffffffffffffffffffffffff1673ffffffffffffffffffffffffffffffffffffffff168152602001908152602001600020600084815260200190815260200160002054905080600860008773ffffffffffffffffffffffffffffffffffffffff1673ffffffffffffffffffffffffffffffffffffffff168152602001908152602001600020600084815260200190815260200160002081905550816009600083815260200190815260200160002081905550505b6009600084815260200190815260200160002060009055600860008573ffffffffffffffffffffffffffffffffffffffff1673ffffffffffffffffffffffffffffffffffffffff16815260200190815260200160002060008381526020019081526020016000206000905550505050565b60006001600a8054905061314d91906149f7565b90506000600b60008481526020019081526020016000205490506000600a83815481106131a3577f4e487b7100000000000000000000000000000000000000000000000000000000600052603260045260246000fd5b9060005260206000200154905080600a83815481106131eb577f4e487b7100000000000000000000000000000000000000000000000000000000600052603260045260246000fd5b906000526020600020018190555081600b600083815260200190815260200160002081905550600b600085815260200190815260200160002060009055600a805480613260577f4e487b7100000000000000000000000000000000000000000000000000000000600052603160045260246000fd5b6001900381819060005260206000200160009055905550505050565b600061328783610fda565b905081600860008573ffffffffffffffffffffffffffffffffffffffff1673ffffffffffffffffffffffffffffffffffffffff168152602001908152602001600020600083815260200190815260200160002081905550806009600084815260200190815260200160002081905550505050565b60007f01ffc9a7000000000000000000000000000000000000000000000000000000007bffffffffffffffffffffffffffffffffffffffffffffffffffffffff1916827bffffffffffffffffffffffffffffffffffffffffffffffffffffffff1916149050919050565b82805461337190614b15565b90600052602060002090601f01602090048101928261339357600085556133da565b82601f106133ac57805160ff19168380011785556133da565b828001600101855582156133da579182015b828111156133d95782518255916020019190600101906133be565b5b5090506133e791906133eb565b5090565b5b808211156134045760008160009055506001016133ec565b5090565b600061341b6134168461483a565b614809565b90508281526020810184848401111561343357600080fd5b61343e848285614aa9565b509392505050565b60006134596134548461486a565b614809565b90508281526020810184848401111561347157600080fd5b61347c848285614aa9565b509392505050565b60008135905061349381614c8e565b92915050565b6000813590506134a881614ca5565b92915050565b6000813590506134bd81614cbc565b92915050565b6000813590506134d281614cd3565b92915050565b6000815190506134e781614cd3565b92915050565b600082601f8301126134fe57600080fd5b813561350e848260208601613408565b91505092915050565b600082601f83011261352857600080fd5b8135613538848260208601613446565b91505092915050565b60008135905061355081614cea565b92915050565b60006020828403121561356857600080fd5b600061357684828501613484565b91505092915050565b6000806040838503121561359257600080fd5b60006135a085828601613484565b92505060206135b185828601613484565b9150509250929050565b6000806000606084860312156135d057600080fd5b60006135de86828701613484565b93505060206135ef86828701613484565b925050604061360086828701613541565b9150509250925092565b6000806000806080858703121561362057600080fd5b600061362e87828801613484565b945050602061363f87828801613484565b935050604061365087828801613541565b925050606085013567ffffffffffffffff81111561366d57600080fd5b613679878288016134ed565b91505092959194509250565b6000806040838503121561369857600080fd5b60006136a685828601613484565b92505060206136b785828601613499565b9150509250929050565b600080604083850312156136d457600080fd5b60006136e285828601613484565b92505060206136f385828601613541565b9150509250929050565b60006020828403121561370f57600080fd5b600061371d848285016134ae565b91505092915050565b6000806040838503121561373957600080fd5b6000613747858286016134ae565b925050602061375885828601613484565b9150509250929050565b6000806040838503121561377557600080fd5b6000613783858286016134ae565b925050602061379485828601613541565b9150509250929050565b6000602082840312156137b057600080fd5b60006137be848285016134c3565b91505092915050565b6000602082840312156137d957600080fd5b60006137e7848285016134d8565b91505092915050565b60006020828403121561380257600080fd5b600082013567ffffffffffffffff81111561381c57600080fd5b61382884828501613517565b91505092915050565b60006020828403121561384357600080fd5b600061385184828501613541565b91505092915050565b6000806040838503121561386d57600080fd5b600061387b85828601613541565b925050602083013567ffffffffffffffff81111561389857600080fd5b6138a485828601613517565b9150509250929050565b60006138ba8383614386565b60208301905092915050565b6138cf81614a2b565b82525050565b60006138e0826148aa565b6138ea81856148d8565b93506138f58361489a565b8060005b8381101561392657815161390d88826138ae565b9750613918836148cb565b9250506001810190506138f9565b5085935050505092915050565b61393c81614a3d565b82525050565b61394b81614a49565b82525050565b600061395c826148b5565b61396681856148e9565b9350613976818560208601614ab8565b61397f81614c7d565b840191505092915050565b6000613995826148c0565b61399f81856148fa565b93506139af818560208601614ab8565b6139b881614c7d565b840191505092915050565b60006139ce826148c0565b6139d8818561490b565b93506139e8818560208601614ab8565b80840191505092915050565b6000613a016020836148fa565b91507f537472696e67733a20686578206c656e67746820696e73756666696369656e746000830152602082019050919050565b6000613a416024836148fa565b91507f4d75737420686176652061646d696e20726f6c6520746f206368616e6765207060008301527f72696365000000000000000000000000000000000000000000000000000000006020830152604082019050919050565b6000613aa7602b836148fa565b91507f455243373231456e756d657261626c653a206f776e657220696e646578206f7560008301527f74206f6620626f756e64730000000000000000000000000000000000000000006020830152604082019050919050565b6000613b0d6032836148fa565b91507f4552433732313a207472616e7366657220746f206e6f6e20455243373231526560008301527f63656976657220696d706c656d656e74657200000000000000000000000000006020830152604082019050919050565b6000613b73601c836148fa565b91507f4552433732313a20746f6b656e20616c7265616479206d696e746564000000006000830152602082019050919050565b6000613bb36024836148fa565b91507f4552433732313a207472616e7366657220746f20746865207a65726f2061646460008301527f72657373000000000000000000000000000000000000000000000000000000006020830152604082019050919050565b6000613c196019836148fa565b91507f4552433732313a20617070726f766520746f2063616c6c6572000000000000006000830152602082019050919050565b6000613c596028836148fa565b91507f4d75737420686176652061646d696e20726f6c6520746f206368616e6765207460008301527f6f6b656e205552490000000000000000000000000000000000000000000000006020830152604082019050919050565b6000613cbf602c836148fa565b91507f4552433732313a206f70657261746f7220717565727920666f72206e6f6e657860008301527f697374656e7420746f6b656e00000000000000000000000000000000000000006020830152604082019050919050565b6000613d256038836148fa565b91507f4552433732313a20617070726f76652063616c6c6572206973206e6f74206f7760008301527f6e6572206e6f7220617070726f76656420666f7220616c6c00000000000000006020830152604082019050919050565b6000613d8b602a836148fa565b91507f4552433732313a2062616c616e636520717565727920666f7220746865207a6560008301527f726f2061646472657373000000000000000000000000000000000000000000006020830152604082019050919050565b6000613df16029836148fa565b91507f4552433732313a206f776e657220717565727920666f72206e6f6e657869737460008301527f656e7420746f6b656e00000000000000000000000000000000000000000000006020830152604082019050919050565b6000613e57602e836148fa565b91507f45524337323155524953746f726167653a2055524920736574206f66206e6f6e60008301527f6578697374656e7420746f6b656e0000000000000000000000000000000000006020830152604082019050919050565b6000613ebd6024836148fa565b91507f4e6f7420656e6f75676874206176617820746f206d696e74207468697320616d60008301527f6f756e74000000000000000000000000000000000000000000000000000000006020830152604082019050919050565b6000613f236020836148fa565b91507f4552433732313a206d696e7420746f20746865207a65726f20616464726573736000830152602082019050919050565b6000613f63602c836148fa565b91507f4552433732313a20617070726f76656420717565727920666f72206e6f6e657860008301527f697374656e7420746f6b656e00000000000000000000000000000000000000006020830152604082019050919050565b6000613fc960058361490b565b91507f2e6a736f6e0000000000000000000000000000000000000000000000000000006000830152600582019050919050565b60006140096029836148fa565b91507f4552433732313a207472616e73666572206f6620746f6b656e2074686174206960008301527f73206e6f74206f776e00000000000000000000000000000000000000000000006020830152604082019050919050565b600061406f602f836148fa565b91507f4552433732314d657461646174613a2055524920717565727920666f72206e6f60008301527f6e6578697374656e7420746f6b656e00000000000000000000000000000000006020830152604082019050919050565b60006140d56021836148fa565b91507f4552433732313a20617070726f76616c20746f2063757272656e74206f776e6560008301527f72000000000000000000000000000000000000000000000000000000000000006020830152604082019050919050565b600061413b6031836148fa565b91507f4552433732313a207472616e736665722063616c6c6572206973206e6f74206f60008301527f776e6572206e6f7220617070726f7665640000000000000000000000000000006020830152604082019050919050565b60006141a16027836148fa565b91507f4d75737420686176652061646d696e20726f6c6520746f206368616e6765206260008301527f61736520555249000000000000000000000000000000000000000000000000006020830152604082019050919050565b6000614207602c836148fa565b91507f455243373231456e756d657261626c653a20676c6f62616c20696e646578206f60008301527f7574206f6620626f756e647300000000000000000000000000000000000000006020830152604082019050919050565b600061426d601c836148fa565b91507f506c65617365207365742074686520636f7272656374207072696365000000006000830152602082019050919050565b60006142ad60178361490b565b91507f416363657373436f6e74726f6c3a206163636f756e74200000000000000000006000830152601782019050919050565b60006142ed60118361490b565b91507f206973206d697373696e6720726f6c65200000000000000000000000000000006000830152601182019050919050565b600061432d602f836148fa565b91507f416363657373436f6e74726f6c3a2063616e206f6e6c792072656e6f756e636560008301527f20726f6c657320666f722073656c6600000000000000000000000000000000006020830152604082019050919050565b61438f81614a9f565b82525050565b61439e81614a9f565b82525050565b60006143b082856139c3565b91506143bc82846139c3565b91506143c782613fbc565b91508190509392505050565b60006143de826142a0565b91506143ea82856139c3565b91506143f5826142e0565b915061440182846139c3565b91508190509392505050565b600060208201905061442260008301846138c6565b92915050565b600060808201905061443d60008301876138c6565b61444a60208301866138c6565b6144576040830185614395565b81810360608301526144698184613951565b905095945050505050565b6000602082019050818103600083015261448e81846138d5565b905092915050565b60006020820190506144ab6000830184613933565b92915050565b60006020820190506144c66000830184613942565b92915050565b600060208201905081810360008301526144e6818461398a565b905092915050565b60006020820190508181036000830152614507816139f4565b9050919050565b6000602082019050818103600083015261452781613a34565b9050919050565b6000602082019050818103600083015261454781613a9a565b9050919050565b6000602082019050818103600083015261456781613b00565b9050919050565b6000602082019050818103600083015261458781613b66565b9050919050565b600060208201905081810360008301526145a781613ba6565b9050919050565b600060208201905081810360008301526145c781613c0c565b9050919050565b600060208201905081810360008301526145e781613c4c565b9050919050565b6000602082019050818103600083015261460781613cb2565b9050919050565b6000602082019050818103600083015261462781613d18565b9050919050565b6000602082019050818103600083015261464781613d7e565b9050919050565b6000602082019050818103600083015261466781613de4565b9050919050565b6000602082019050818103600083015261468781613e4a565b9050919050565b600060208201905081810360008301526146a781613eb0565b9050919050565b600060208201905081810360008301526146c781613f16565b9050919050565b600060208201905081810360008301526146e781613f56565b9050919050565b6000602082019050818103600083015261470781613ffc565b9050919050565b6000602082019050818103600083015261472781614062565b9050919050565b60006020820190508181036000830152614747816140c8565b9050919050565b600060208201905081810360008301526147678161412e565b9050919050565b6000602082019050818103600083015261478781614194565b9050919050565b600060208201905081810360008301526147a7816141fa565b9050919050565b600060208201905081810360008301526147c781614260565b9050919050565b600060208201905081810360008301526147e781614320565b9050919050565b60006020820190506148036000830184614395565b92915050565b6000604051905081810181811067ffffffffffffffff821117156148305761482f614c4e565b5b8060405250919050565b600067ffffffffffffffff82111561485557614854614c4e565b5b601f19601f8301169050602081019050919050565b600067ffffffffffffffff82111561488557614884614c4e565b5b601f19601f8301169050602081019050919050565b6000819050602082019050919050565b600081519050919050565b600081519050919050565b600081519050919050565b6000602082019050919050565b600082825260208201905092915050565b600082825260208201905092915050565b600082825260208201905092915050565b600081905092915050565b600061492182614a9f565b915061492c83614a9f565b9250827fffffffffffffffffffffffffffffffffffffffffffffffffffffffffffffffff0382111561496157614960614bc1565b5b828201905092915050565b600061497782614a9f565b915061498283614a9f565b92508261499257614991614bf0565b5b828204905092915050565b60006149a882614a9f565b91506149b383614a9f565b9250817fffffffffffffffffffffffffffffffffffffffffffffffffffffffffffffffff04831182151516156149ec576149eb614bc1565b5b828202905092915050565b6000614a0282614a9f565b9150614a0d83614a9f565b925082821015614a2057614a1f614bc1565b5b828203905092915050565b6000614a3682614a7f565b9050919050565b60008115159050919050565b6000819050919050565b60007fffffffff0000000000000000000000000000000000000000000000000000000082169050919050565b600073ffffffffffffffffffffffffffffffffffffffff82169050919050565b6000819050919050565b82818337600083830152505050565b60005b83811015614ad6578082015181840152602081019050614abb565b83811115614ae5576000848401525b50505050565b6000614af682614a9f565b91506000821415614b0a57614b09614bc1565b5b600182039050919050565b60006002820490506001821680614b2d57607f821691505b60208210811415614b4157614b40614c1f565b5b50919050565b6000614b5282614a9f565b91507fffffffffffffffffffffffffffffffffffffffffffffffffffffffffffffffff821415614b8557614b84614bc1565b5b600182019050919050565b6000614b9b82614a9f565b9150614ba683614a9f565b925082614bb657614bb5614bf0565b5b828206905092915050565b7f4e487b7100000000000000000000000000000000000000000000000000000000600052601160045260246000fd5b7f4e487b7100000000000000000000000000000000000000000000000000000000600052601260045260246000fd5b7f4e487b7100000000000000000000000000000000000000000000000000000000600052602260045260246000fd5b7f4e487b7100000000000000000000000000000000000000000000000000000000600052604160045260246000fd5b6000601f19601f8301169050919050565b614c9781614a2b565b8114614ca257600080fd5b50565b614cae81614a3d565b8114614cb957600080fd5b50565b614cc581614a49565b8114614cd057600080fd5b50565b614cdc81614a53565b8114614ce757600080fd5b50565b614cf381614a9f565b8114614cfe57600080fd5b5056fea264697066735822122034b425f8b0169d6bcdae7838ba6e22d51f19897de8d9a3f997be5cd678593bf064736f6c63430008000033",
  "linkReferences": {},
  "deployedLinkReferences": {}
}